:020000040800F2
:1000000000800020293F0008D3130008D513000802
:10001000D7130008D9130008DB1300080000000004
:10002000000000000000000000000000DD130008D8
:10003000DF13000800000000E1130008E3130008CC
:10004000793F0008793F0008E5130008793F000870
:10005000793F0008793F0008793F0008793F0008A0
:10006000793F0008793F0008793F0008793F000890
:10007000793F0008793F0008793F0008F513000830
:10008000793F0008793F0008793F0008793F000870
:10009000793F0008793F0008793F0008793F000860
:1000A000793F0008793F0008793F0008793F000850
:1000B000793F0008793F0008793F0008793F000840
:1000C000793F0008793F0008793F0008793F000830
:1000D000793F0008793F000805140008793F0008BF
:1000E000793F0008793F000815140008793F00089F
:1000F000793F0008793F0008793F0008793F000800
:10010000793F0008793F000825140008793F00086E
:10011000793F0008793F0008793F0008793F0008DF
:10012000793F0008793F0008793F0008793F0008CF
:08013000793F0008793F000847
:1001380010B5054C237833B9044B13B10448AFF319
:1001480000800123237010BD38010020000000004A
:10015800E039010808B5034B1BB103490348AFF365
:10016800008008BD000000003C010020E0390108C3
:10017800034613F8012B002AFBD1181A01387047DF
:1001880081F0004102E000BF83F0004330B54FEA40
:1001980041044FEA430594EA050F08BF90EA020FAD
:1001A8001FBF54EA000C55EA020C7FEA645C7FEA40
:1001B800655C00F0E2804FEA5454D4EB5555B8BF63
:1001C8006D420CDD2C4480EA020281EA030382EAD4
:1001D800000083EA010180EA020281EA0303362D66
:1001E80088BF30BD11F0004F4FEA01314FF4801C39
:1001F8004CEA113102D0404261EB410113F0004F4B
:100208004FEA03334CEA133302D0524263EB430301
:1002180094EA050F00F0A780A4F10104D5F1200E9F
:100228000DDB02FA0EFC22FA05F2801841F10001FA
:1002380003FA0EF2801843FA05F359410EE0A5F1CE
:1002480020050EF1200E012A03FA0EFC28BF4CF0FF
:10025800020C43FA05F3C01851EBE37101F00045B5
:1002680007D54FF0000EDCF1000C7EEB00006EEBC2
:100278000101B1F5801F1BD3B1F5001F0CD349084C
:100288005FEA30004FEA3C0C04F101044FEA4452A3
:1002980012F5800F80F09A80BCF1004F08BF5FEA2A
:1002A800500C50F1000041EB045141EA050130BD0A
:1002B8005FEA4C0C404141EB0101013C28BFB1F51C
:1002C800801FE9D291F0000F04BF01460020B1FA67
:1002D80081F308BF2033A3F10B03B3F120020CDA3A
:1002E8000C3208DD02F1140CC2F10C0201FA0CF018
:1002F80021FA02F10CE002F11402D8BFC2F1200C7D
:1003080001FA02F120FA0CFCDCBF41EA0C01904032
:10031800E41AA2BF01EB0451294330BD6FEA04047B
:100328001F3C1CDA0C340EDC04F11404C4F1200266
:1003380020FA04F001FA02F340EA030021FA04F378
:1003480045EA030130BDC4F10C04C4F1200220FACF
:1003580002F001FA04F340EA0300294630BD21FA0D
:1003680004F0294630BD94F0000F83F4801306BFD3
:1003780081F480110134013D4EE77FEA645C18BFC7
:100388007FEA655C29D094EA050F08BF90EA020F5E
:1003980005D054EA000C04BF1946104630BD91EA56
:1003A800030F1EBF0021002030BD5FEA545C05D159
:1003B8004000494128BF41F0004130BD14F5800498
:1003C8003CBF01F5801130BD01F0004545F0FE410C
:1003D80041F470014FF0000030BD7FEA645C1ABF41
:1003E800194610467FEA655C1CBF0B46024650EA78
:1003F800013406BF52EA033591EA030F41F40021A4
:1004080030BD00BF90F0000F04BF0021704730B529
:100418004FF4806404F132044FF000054FF00001FE
:1004280050E700BF90F0000F04BF0021704730B5BF
:100438004FF4806404F1320410F0004548BF404294
:100448004FF000013EE700BF42004FEAE2014FEAE9
:1004580031014FEA02701FBF12F07F4393F07F4FC4
:1004680081F06051704732F07F4208BF704793F0C7
:100478007F4F04BF41F40021704730B54FF46074DA
:1004880001F0004521F000411CE700BF50EA0102DD
:1004980008BF704730B54FF000050AE050EA010286
:1004A80008BF704730B511F0004502D5404261EBF6
:1004B80041014FF4806404F132045FEA915C3FF437
:1004C800D8AE4FF003025FEADC0C18BF03325FEAD4
:1004D800DC0C18BF033202EBDC02C2F1200300FA85
:1004E80003FC20FA02F001FA03FE40EA0E0021FAAA
:1004F80002F11444BDE600BF4FF0FF3C06E000BF28
:100508004FF0010C02E000BF4FF0010C4DF804CD94
:100518004FEA410C7FEA6C5C4FEA430C18BF7FEA54
:100528006C5C1BD001B050EA410C0CBF52EA430C82
:1005380091EA030F02BF90EA020F0020704710F102
:10054800000F91EA030F58BF994208BF90422CBF91
:10055800D8176FEAE37040F0010070474FEA410C8A
:100568007FEA6C5C02D150EA013C07D14FEA430CA8
:100578007FEA6C5CD6D152EA033CD3D05DF8040B19
:10058800704700BF8446104662468C46194663464B
:1005980000E000BF01B5FFF7B7FF002848BF10F122
:1005A800000F01BD4DF808EDFFF7F4FF0CBF012067
:1005B80000205DF808FB00BF4DF808EDFFF7EAFFE3
:1005C80034BF012000205DF808FB00BF4DF808ED9E
:1005D800FFF7E0FF94BF012000205DF808FB00BF93
:1005E8004DF808EDFFF7CEFF94BF012000205DF81D
:1005F80008FB00BF4DF808EDFFF7C4FF34BF01202A
:1006080000205DF808FB00BF4FEA410212F5001216
:1006180015D211D56FF47873B3EB625212D94FEA41
:10062800C12343F0004343EA505311F0004F23FA2B
:1006380002F018BF404270474FF00000704750EA80
:10064800013005D111F0004008BF6FF0004070473D
:100658004FF00000704700BF80F0004002E000BF8C
:1006680081F0004142001FBF5FEA410392EA030F95
:100678007FEA226C7FEA236C6AD04FEA1262D2EBDF
:100688001363C1BFD218414048404140B8BF5B42E4
:10069800192B88BF704710F0004F40F4000020F07D
:1006A8007F4018BF404211F0004F41F4000121F093
:1006B8007F4118BF494292EA030F3FD0A2F10102DD
:1006C80041FA03FC10EB0C00C3F1200301FA03F11B
:1006D80000F0004302D5494260EB4000B0F5000F3E
:1006E80013D3B0F1807F06D340084FEA310102F1FD
:1006F8000102FE2A51D2B1F1004F40EBC25008BFAF
:1007080020F0010040EA03007047490040EB000078
:10071800013A28BFB0F5000FEDD2B0FA80FCACF179
:10072800080CB2EB0C0200FA0CF0AABF00EBC250A6
:1007380052421843BCBFD0401843704792F0000F94
:1007480081F4000106BF80F400000132013BB5E7E7
:100758004FEA41037FEA226C18BF7FEA236C21D05D
:1007680092EA030F04D092F0000F08BF08467047C2
:1007780090EA010F1CBF0020704712F07F4F04D190
:10078800400028BF40F00040704712F100723CBFA3
:1007980000F50000704700F0004343F0FE4040F4CD
:1007A800000070477FEA226216BF08467FEA23638B
:1007B8000146420206BF5FEA412390EA010F40F476
:1007C800800070474FF0000304E000BF10F00043C2
:1007D80048BF40425FEA000C08BF704743F09643A9
:1007E80001464FF000001CE050EA010208BF7047C4
:1007F8004FF000030AE000BF50EA010208BF70474B
:1008080011F0004302D5404261EB41015FEA010C5F
:1008180002BF84460146002043F0B64308BFA3F157
:100828008053A3F50003BCFA8CF2083AA3EBC25339
:1008380010DB01FA02FC634400FA02FCC2F1200258
:10084800BCF1004F20FA02F243EB020008BF20F08F
:100858000100704702F1200201FA02FCC2F12002F5
:1008680050EA4C0021FA02F243EB020008BF20EAEA
:10087800DC70704753B94AB9002908BF00281CBF6B
:100888004FF0FF314FF0FF3000F06AB9ADF1080CBE
:100898006DE904CE00F006F8DDF804E0DDE9022396
:1008A80004B070472DE9F047089D0C46002B4ED147
:1008B80094468C458646B2FA82F262D94AB1C2F1B0
:1008C8002003914020FA03F30CFA02FC194300FAC2
:1008D80002FE4FEA1C471FFA8CF6B1FBF7F44FEA09
:1008E8001E4307FB141143EA014304FB06F1994236
:1008F8000AD91CEB030304F1FF3080F012819942FE
:1009080040F20F81023C6344591A1FFA8EF3B1FB7F
:10091800F7F007FB101143EA014300FB06F69E427D
:100928000AD91CEB030300F1FF3180F0FC809E42E2
:1009380040F2F980634402389B1B40EA04400021DE
:100948001DB1D3400022C5E90032BDE8F0878B42D3
:1009580005D90DB1C5E9000100210846F5E7B3FA4C
:1009680083F1002946D1A34202D39042C0F0F0801F
:10097800861A64EB03030120002DE6D0C5E9006365
:10098800E3E7002A40F09080A1EB0C044FEA1C48F2
:100998001FFA8CF70121B4FBF8F64FEA1E4308FB57
:1009A800164443EA044307FB06F0984208D91CEBB7
:1009B800030306F1FF3402D2984200F2CD802646A6
:1009C8001C1A1FFA8EF3B4FBF8F008FB104443EA34
:1009D800044300FB07F79F4208D91CEB030300F10F
:1009E800FF3402D29F4200F2B0802046DB1B40EA6F
:1009F8000640A5E7C1F120068B4022FA06F71F43FF
:100A080020FA06FC04FA01F343EA0C03F44000FA66
:100A180001F8380C4FEA1349B4FBF0FE1FFA87FCC3
:100A280000FB1E4449EA04440EFB0CF9A14502FAF6
:100A380001F20AD93C190EF1FF3A80F08480A145F1
:100A480040F28180AEF1020E3C44A4EB09041FFA87
:100A580083F9B4FBF0F300FB134449EA044403FBB5
:100A68000CFCA44507D93C1903F1FF3067D2A44513
:100A780065D9023B3C4443EA0E40A0FB0293A4EB39
:100A88000C049C42CE469C4651D34ED055B1B8EB8F
:100A98000E0364EB0C0404FA06F6CB401E43CC406C
:100AA800C5E90064002150E7C2F1200320FA03F1F0
:100AB8000CFA02FC24FA03F394400C434FEA1C4856
:100AC80000FA02FE1FFA8CF7B3FBF8F008FB1031AE
:100AD800230C43EA014300FB07F1994208D91CEBB8
:100AE800030300F1FF362CD299422AD90238634415
:100AF8005B1AA4B2B3FBF8F108FB113344EA0344D0
:100B080001FB07F3A34208D91CEB040401F1FF36EB
:100B180013D2A34211D902396444E41A41EA0041CC
:100B280039E70446F0E6084606E7C845AED2B9EB11
:100B3800020E63EB070C0138A8E73146EDE70346E0
:100B480099E73046D4E7D6467FE7634402384DE755
:100B58000646234608460FE7023E634430E700BFD7
:100B6800704700BF08B51348134B03604FF00043AC
:100B7800436000238360C3600361042242610376FB
:100B8800437683760122C26180F820304362836213
:100B980080F82C304FF4805202630722426382634C
:100BA80080F83C30C36403F0CFFA00B908BD00F008
:100BB80017FBFBE754010020002401400268094BA1
:100BC8009A4200D0704782B04FF0B0431A6E42F498
:100BD80000721A661B6E03F400730193019B02B046
:100BE800704700BF002401400268054B9A4200D0BC
:100BF80070474FF0B042136E23F400731366F7E7A3
:100C08000024014030B585B00446002301930293C7
:100C18000393FFF7A7FF164803F0CEFEF8B9019437
:100C280000230293039301A9114803F007FCC8B9F4
:100C38000F4803F0C5FDC0B90D4C4FF0FF312046F9
:100C480003F09AFB204603F097FE204603F0F3FBDF
:100C58000546204603F030FE284605B030BD00F0BA
:100C6800BFFADCE700F0BCFAE2E700F0B9FAE3E724
:100C780054010020014B024A1A60704754010020B9
:100C88000024014008B50D48FFF7BCFFA0B103469A
:100C98000B4AB2F8AA004FF6FF72904207D040F60E
:100CA800E44202FB00F0B0FBF3F080B205E0054837
:100CB800B0FBF3F080B200E0002008BD002000B4D3
:100CC8000075FF1FD8084C0010B582B00023ADF89E
:100CD8000630FFF7D7FF04462148FFF793FF214B63
:100CE800B3F8C820B3F8A8108A421DD000FB04F35B
:100CF8009B081D48A0FB0303C1EB5313642000FBB2
:100D080003F3521A93FBF2F31E331BB2ADF806300D
:100D1800BDF806301BB21B021BB2ADF80630BDF899
:100D2800060000B202B010BD04FB00F00F4BA3FB9D
:100D38000023C41A03EB5403DB0A4FF47A7202FB54
:100D480003F3A3F53923A3F50C63094A82FB0312C5
:100D5800DB17C3EBA2231E331BB2ADF80630D7E76F
:100D6800001000B00075FF1F9F00EE090101100080
:100D7800AD8BDB6800B583B04FF0B0439A6C42F09E
:100D880004029A649A6C02F004020192019A9A6C25
:100D980042F001029A649B6C03F001030093009BEC
:100DA800002202210F2003F00DFF0F2003F01AFF8D
:100DB80003B05DF804FB002301E0083008338B42E0
:100DC8000AD24268D0F800C0B2F1FF3F08BFBCF1B8
:100DD800FF3FF2D0012070470020704730B108B5BE
:100DE80039B192B211F0C0FD002008BD6FF00500C6
:100DF80070476FF00500F8E708B504F0ABF978B96B
:100E0800094B9A6942F040429A614CF2FA321A61EF
:100E180004F0B8F908B9002008BD6FF00400FBE73A
:100E28006FF00400F8E700BF0040005870B584B0C8
:100E380000230393002839D00E460446FFF7DCFF51
:100E4800054610B1284604B070BD04F083F980BB94
:100E58000223009304F178431748D0F8E015174AA5
:100E680002EA8121B3FBF1FC01FB1C33DB0A01938D
:100E7800A11901F178410139D0F8E00502EA802290
:100E8800B1FBF2F002FB1011C3EBD1230133029343
:100E980003A9684604F04CFA18B1022804D06FF090
:100EA800010504F06FF9CDE70125FAE76FF00505B4
:100EB800C8E76FF00405C5E70070FF1F00FCFF03DB
:100EC8002DE9F04F89B003900492002800F0B48017
:100ED80083460E46002900F0B38012F0070F40F059
:100EE800B38010F00703059340F0B280FFF784FF4A
:100EF800019018B1019809B0BDE8F08F04F02AF903
:100F0800002840F0A980039C04F17842544BD3F8A0
:100F1800E035544901EA8321B2FBF1F301FB1322C6
:100F2800D30A0693049BE31803F17843013BB3FB10
:100F3800F1F001FB1033DB0AA3EBD2230133012BC1
:100F480007D9C4F30A09C9F50069DDF818A00793A1
:100F580031E0DDF81090F8E7C84637465C46059D55
:100F6800CDF808B0454515D205EB070BDBE90023A2
:100F78002146012004F054F9002847D1206862680E
:100F8800E959DBF804309A4208BF884244D1083452
:100F98000835E7E7DDF808B0019B002B45D1CB44C5
:100FA8004E44049BA3EB0909B9F5006F28BF4FF421
:100FB80000690AF1010A069B079A1344534534D97C
:100FC8000AF58034E40249460398FFF7F4FE002846
:100FD800C2D0254B186828B34FF400622146FFF7AA
:100FE800FDFE214B1B68CBF30A001FFA89F231463C
:100FF800184411F0B9FC4FF400612046FFF716FFC2
:10100800B0B9194B1F684FF40068A8E7DDF808B0BD
:101018006FF003030193BFE7DDF808B06FF0030337
:101028000193B9E76FF00503019304F0ABF861E7AA
:101038006FF001030193F8E76FF00503019359E797
:101048006FF00503019355E76FF00503019351E72E
:101058006FF0050301934DE76FF00403019349E72F
:101068000070FF1F00FCFF03B8010020014B18604F
:1010780000207047B8010020B0F1006F0ED310B502
:10108800094BD3F8E045094B03EA842303F10063D5
:10109800013B984205D8FFF713FF10BD4FF0FF3012
:1010A80070474FF0FF30F8E70070FF1F00FCFF03A8
:1010B800B1F1006F0ED310B5094BD3F8E045094BD9
:1010C80003EA842303F10063013B994205D8FFF743
:1010D80085FE10BD4FF0FF3070474FF0FF30F8E746
:1010E8000070FF1F00FCFF03B0F1006F0ED308B5BE
:1010F800094BD3F8E025094B03EA822303F1006387
:10110800013B984205D8FFF791FE08BD4FF0FF302C
:1011180070474FF0FF30F8E70070FF1F00FCFF0337
:101128002DE9F04188B000240394049405940694B2
:1011380007944FF0B043DA6C42F00202DA64DA6CDA
:1011480002F002020292029ADA6C42F00402DA64B5
:10115800DA6C02F004020192019ADA6C42F00102A0
:10116800DA64DB6C03F001030093009B1A4E2246FD
:101178004FF43A41304604F06BFA4FF40A430393B4
:101188000125049505940223069303A9304604F02B
:101198000FF94FF00308CDF80C804FF404170497AB
:1011A800059503A94FF0904004F002F94FF440531D
:1011B800039304950594CDF8188003A9304604F0EC
:1011C800F7F8402303930497059503A9034804F00F
:1011D800EFF808B0BDE8F0810004004800080048B6
:1011E80072B6FEE710B59AB04822002108A812F09E
:1011F80035FB002401940294039404940594069406
:10120800079404F033FA4FF0B042D2F8903023F04C
:101218001803C2F8903002F58062136823F4C063A3
:1012280043F400731360136803F4C0630093009BD6
:101238002423089381230B93012310931194B02343
:101248001293139408A804F0ABFB70B94F230193D1
:10125800002302930393049305930793022101A8A3
:1012680004F0D0FE18B91AB010BDFFF7B9FFFFF7A8
:10127800B7FF08B502F01AFFFFF7B4FFFFF750FFFA
:1012880000F0C0FC00F0C4FCFCE7000000B58DB025
:101298002C22002101A812F0E1FA1948194B036029
:1012A8001F23836000230361436183614FF0804201
:1012B800C26103624FF48073436205F0EFF9A8B985
:1012C8000F4805F02FFBA0B900220892029206925F
:1012D8004FF0005307934FF480730B9301A908480C
:1012E80005F044FA40B90DB05DF804FBFFF778FF4C
:1012F800E6E7FFF775FFE7E7FFF772FFF3E700BFE1
:10130800C00100200028004010B590B004463822E3
:10131800002102A812F0A2FA22681A4B9A4201D0C0
:1013280010B010BD4FF4803302934FF480730F93C5
:1013380002A804F0CBFF08BB4FF0B043D3F89020CD
:1013480042F40042C3F890209A6D42F480629A6594
:101358009B6D03F480630193019B002211460220D8
:1013680003F030FC022003F03DFC002211462A2045
:1013780003F028FC2A2003F035FCD1E7FFF730FF03
:10138800DAE700BF002800407047704708B502F050
:10139800A3FE0120024BC3F8880004F0CBF908BD76
:1013A8000004005808B502F09EFE08BD08B502F01A
:1013B8009AFE00F0EFFB08BD08B502F08DFE012192
:1013C800002004F05BF908BD7047FEE7FEE7FEE782
:1013D800FEE7FEE7704770477047704708B5024858
:1013E80005F0CCFA08BD00BFC001002008B50248CE
:1013F80003F0FEFD08BD00BF1002002008B502483A
:1014080005F07EFF08BD00BF7002002008B5024845
:1014180005F0BEF808BD00BFC001002008B50248AD
:1014280005F064FD08BD00BFF801002008B50548B7
:101438000823036005F0D8FA00B908BDFFF7D0FE0D
:10144800FBE700BFF801002000B583B04FF0B043C0
:101458005A6E42F001025A665B6E03F00103019373
:10146800019B00221146322003F0ACFB322003F02E
:10147800B9FB03B05DF804FB0CB400B583B004AB52
:1014880053F8042B019312F025F903B05DF804EB2F
:1014980002B0704730B585B004460D4602A811F079
:1014A80071FCBDF90C300093029B054A10212046BF
:1014B800FFF7E2FF2046FEF75BFE288005B030BD4F
:1014C800043B010810B54FF0B042936823F4004381
:1014D800936011F04DFD01240C4B1C7000F0B4F822
:1014E80011F09EF80A4811F0C9F80A4B4FF400426F
:1014F8001A61022011F0C8F8FFF7BCFB11F0DAF905
:101508002146204611F0F6F910BD00BF0402002064
:101518009D1400080040005808B511F001FA08BDF4
:1015280008B5FFF7AFFB40F6B83398420DD8B0F5D1
:10153800E16F0CD3A0F5E160C0EBC0104000054B93
:10154800A3FB0030C0F3C71000E0FE2008BD002058
:10155800FCE700BFB5814E1B08B5FFF7B5FB40F3AC
:101568000F2008BD38B50446184BD3F88035B3F1C1
:10157800FF3F13D0C3711A0A82711A0C42711B0EF5
:101588000371124BD3F88425C270D3F884351A0A34
:1015980082701A0C42701B0E037038BD02F0AAFD4F
:1015A800054602F0B3FD054402F0AAFD2B0EE371D7
:1015B8002B0CA3712B0A63712571030EE370030CC6
:1015C800A370030A63702070E7E700BF0070FF1F75
:1015D80038B50A4BD3F880350360B3F1FF3F00D02C
:1015E80038BD044602F086FD054602F089FD4540F7
:1015F80002F08CFD45402560F2E700BF0070FF1F38
:1016080008B50121022011F05FF908BD08B50021D5
:10161800022011F059F908BD0020704708B5044BA5
:101628001B780BB9002008BD00F07CF8FBE700BF71
:101638000402002000B583B00190019800F058F929
:1016480003B05DF804FB0000F0B589B002F064FD5A
:1016580002F06AFD02F070FD0024039404940594DE
:101668000694079401230493032306934FF0B04391
:10167800DA6C42F00202DA64DA6C02F002020292D8
:10168800029ADA6C42F00202DA64DB6C03F00203BD
:101698000193019B4FF4805703970C4D03A92846EB
:1016A80003F086FE4FF40056039603A9284603F07C
:1016B8007FFE22463946284603F0CAFF22463146B5
:1016C800284603F0C5FF09B0F0BD00BF000400487C
:1016D800064B986801E0054B9868044B9B68834269
:1016E800F9D1C043024B1860704700BF0028004082
:1016F80008020020014B1868704700BF080200204C
:10170800064B986801E0054B9868044B9B68834238
:10171800F9D1C043024B1B68C01A7047002800402B
:1017280008020020074B1B7853B1074B986801E06B
:10173800054B9868044B9B688342F9D1C0437047B6
:10174800002070470C02002000280040032070474A
:1017580008B501464FF47A7200238002890DFFF71D
:1017680089F808BDC20E43011B1A62F100029200FB
:1017780042EA93729B001B1842F10000C00040EA45
:101788005370C3F3D51343EA8050704710B5074B25
:101798000122DA65064C4FF48071204604F0B8FE49
:1017A8004FF0FF332363002010BD00BF0028004026
:1017B800C001002008B502460221024805F0F3F8EE
:1017C80008BD00BFC001002038B50F4B1B780BB116
:1017D800002038BD0D4C4FF0FF352563FFF756FD4F
:1017E800FFF7D4FF4FF48071204604F091FE256383
:1017F800204605F077F80020FFF7DCFFFFF768FFC9
:10180800014B01221A70E3E70C020020C0010020FE
:1018180008B502460021024805F0C5F808BD00BF1A
:10182800C001002008B502460121024805F0BBF8B6
:1018380008BD00BFC001002010B58CB004462C22A2
:10184800002101A812F00AF8FFF7A0FF0C4B1B6853
:101858001C4400230893E443029406934FF000537A
:1018680007934FF480730B93012201A9054804F0F4
:101878007DFF10B900200CB010BDFFF7B1FCF9E7EF
:1018880008020020C001002008B50221014805F027
:1018980091F808BDC001002038B505460B4B9C687F
:1018A80001E00A4B9C68094A9268A242F9D1E443D4
:1018B800FFF7EAFF2346A40A44EA8054C3F3090069
:1018C800FFF750FF2880204638BD00BF00280040A1
:1018D80008B50021014805F06DF808BDC0010020D9
:1018E80008B50121014805F065F808BDC0010020D0
:1018F80008B5FFF72DFF0D4B996801E00B4B996870
:101908000A4A92688A42F9D1C9430AE0074B9B68A0
:10191800064A92689A42F9D1DB435B1A834203D2A2
:1019280000BF024B9B68F3E708BD00BF00280040DA
:1019380008B511F041FC08BD08B5FFF7A5FF013057
:10194800FFF738FF08BD000008B51848184B0360BA
:101958004FF41653436000238360C36003610C2275
:10196800426183610362436283624FF000534366BE
:1019780006F07EFB70B900210C4806F02EFD60B918
:1019880000210A4806F04EFD50B9084806F001FD4E
:1019980048B908BDFFF724FCEDE7FFF721FCEFE7A6
:1019A800FFF71EFCF1E7FFF71BFCF2E770020020CF
:1019B8000080004030B597B0044600211191129183
:1019C800139114911591382203A811F047FF22684A
:1019D8002E4B9A4201D017B030BD202303934FF409
:1019E8004063079303A804F071FC002844D14FF02A
:1019F800B043DA6D42F00102DA65DA6D02F00102F5
:101A08000292029ADA6C42F00102DA64DB6C03F0AB
:101A180001030193019B0C231193022312930025C8
:101A28001395032314930823159311A94FF090409D
:101A380003F0BEFC1648174B0360162343601023BF
:101A48008360C5608023036145618561C561056266
:101A580003F040F998B910210D4803F03DFB88B90F
:101A68000B4BE3679C6200220221262003F0AAF8B0
:101A7800262003F0B7F8AEE7FFF7B2FBB7E7FFF7AA
:101A8800AFFBE8E7FFF7ACFBEAE700BF00800040E8
:101A9800100200205800024002680C4B9A4200D005
:101AA800704710B504464FF0B042D36D23F00103E0
:101AB800D3650C214FF0904003F04CFDE06F03F02C
:101AC8007BF9262003F092F810BD00BF008000408B
:101AD80008B5074B1860FFF74DF9FFF735FF054AC2
:101AE800D2F8803043F08053C2F88030002008BD1F
:101AF800080300200008005808B54FF0B043DA6B1F
:101B080042F00102DA63DA6B22F00102DA63044878
:101B1800FFF7C2FF0F2003F069F8002008BD00BFDF
:101B28007002002008B50A460146024805F024FB69
:101B3800002008BD7002002010B582B0124B18605A
:101B48004FF40013009302AB13E906000F4806F0A8
:101B5800C8FB0E4B1B68DA6912F4803FF9D1DA69C9
:101B680012F4800FFBD09A6842F480029A60074C06
:101B7800204606F0F7FB01220549204606F04AFBFD
:101B8800002002B010BD00BF040300207002002036
:101B98000C03002008B5044803F09CF800B908BD00
:101BA800FFF71EFBFBE700BF1002002008B5026824
:101BB800044B9A4200D008BD034B1B68002098478D
:101BC800F9E700BF008000400803002002680A4BC4
:101BD8009A4200D0704710B50446084B1B682BB1D9
:101BE800D0F8902012B901210548984701220449EC
:101BF800204606F00FFB10BD0080004004030020C3
:101C08000C03002008B5FFF75DFC00F09FF808BD45
:101C180008B54FF0FF3010F0FBFE08BD7047704765
:101C280070470000014B1874704700BF0400002083
:101C3800704718B108B500F003FB08BD704708B538
:101C480000F0ECFA08BD000008B500224FF400418E
:101C5800014803F0FDFC08BD0004004808B5002257
:101C68004FF40071014803F0F3FC08BD000400487C
:101C780038B50C46054668B101224FF400410748C3
:101C880003F0E6FC064811F037FA2146284600F032
:101C980039FA38BD0029EFD1FBE700BF000400483E
:101CA8002803002088B110B5044603781BB92046E4
:101CB80000F0A0FA10BD01224FF40071034803F0B0
:101CC800C7FC034811F018FAF1E770470004004810
:101CD8004003002090B110B5044690F906301BB1BE
:101CE800204600F0F3F910BD054811F0ABF90022C9
:101CF8004FF40061034803F0ABFCF1E7704700BF05
:101D0800100300200004004808B500F0E3FA08BDFD
:101D180008B50021022010F03BFE08BD08B50021DF
:101D2800012010F035FE08BD08B500F0E9FA08BD3D
:101D380008B500F0F7FA08BD08B54FF4006102488D
:101D480003F08BFC08BD00BF00040048F0B587B065
:101D580000240594484801F031FC029403270197B8
:101D680001260096454B22462146022010F0E6FC4B
:101D780002940523019302250095414B22462146F2
:101D8800284610F0DBFC0294019700963D4B224652
:101D98002146284610F0D2FC05A9204606F0F8FF97
:101DA800059B1A0EC3F307210291C3F3074301935E
:101DB8000092354B22462146284610F0BFFC05A963
:101DC800304606F0E5FF059B1A0ED9B20391C3F31E
:101DD80007210291C3F30743019300922B4B22463C
:101DE8002146284610F0AAFC0094294B22464FF4BD
:101DF800FA71284811F0C8F80094274B22464FF48E
:101E0800FA71264811F0C0F80094254B32464FF479
:101E1800FA71244811F0B8F82046FFF727F938BBC3
:101E2800214A0021022010F0BBFE204A0021012097
:101E380010F0B6FE01F07EFC1D491E4806F05CFF5E
:101E48001D4806F033FE174811F056F91B4B0022C7
:101E58001146104610F072FC0028F7D1184B0022EA
:101E68001146104610F06AFC0028F7D107B0F0BD03
:101E7800FFF7B6F9D4E700BF251D0008603B01084D
:101E8800843B0108A83B0108CC3B0108F03B010852
:101E9800651C000840030020511C0008280300208E
:101EA800411D000810030020958800080936000825
:101EB800000003011C00002004000020143C01085D
:101EC800343C0108BFF34F8F0549CA6802F4E06249
:101ED800044B1343CB60BFF34F8F00BFFDE700BF38
:101EE80000ED00E00400FA0500B583B00090044B53
:101EF80000221146104610F021FC03B05DF804FBE7
:101F08005C3C0108F0B589B0037842788178C478E0
:101F1800057946798779C0790790069705960495DB
:101F28000394029101920093034B0022114610463C
:101F380010F004FC09B0F0BD245F01082DE9F04F52
:101F480093B003781093427811928378C27801791C
:101F580044798579C679077A90F809C090F80AE03B
:101F680090F80B8090F80C9090F80DA090F80EB0B7
:101F7800C07B0F90CDF838B0CDF834A0CDF83090B4
:101F8800CDF82C80CDF828E0CDF824C00897079626
:101F980006950594049103920293119A0192109B5D
:101FA8000093044B00221146104610F0C7FB13B0F3
:101FB800BDE8F08F643C010800B585B0030EC0F39E
:101FC8000742C0F30721C0B2039002910192009327
:101FD800044B00221146104610F0B0FB05B05DF826
:101FE80004FB00BF645F010800B583B00090044B98
:101FF80000221146104610F0A1FB03B05DF804FB67
:10200800B83C010800B58FB00A4601F10F030D93E3
:1020180001F10E030C9301F10D030B9301F10C0375
:102028000A9301F10B03099301F10A03089301F1E3
:102038000903079301F108030693CB1D05938B1D34
:1020480004934B1D03930B1D0293CB1C01938B1C14
:1020580000934B1C024911F091FA0FB05DF804FB94
:10206800C03C010800B583B001914B1C00938B1C48
:10207800CA1C034911F082FA03B05DF804FB00BFE3
:10208800FC3C010808B50B4B5A684321117001222A
:102098005A7063221A7006F061FB012805D10022EC
:1020A8001146044806F06CFB08BD034811F024F8FB
:1020B800F5E700BF680000205803002008B500219C
:1020C800082010F065FC08BD0120704708B510B164
:1020D80090F9063033B1084B00221146104610F033
:1020E8002DFB08BD054B00221146104610F026FBBB
:1020F800034B01221A70F4E7203D0108103D010846
:10210800BC0100202DE9F0418CB007460E4606AC14
:10211800324D0FCD0FC495E8030084E8030047B3A0
:102128003D4697F800807B682BB37F781FB3F12F6B
:1021380000D9F2270197CDF80080294B00221146DB
:10214800104610F0FBFA00240AE06B681B5D009350
:10215800244B00221146104610F0F0FA0134E4B284
:10216800A742F2D8204B00221146104610F0E6FA9A
:1021780001E04FF0000816B1337C052B02D90CB0F2
:10218800BDE8F08196F9082096F9091096F90A0039
:10219800049003910292CDF804800CAA02EB830309
:1021A80053F8183C0093114B00221146104610F0CA
:1021B800C5FA737C33B90C4B00221146104610F057
:1021C800BDFADCE7B37CF27C01920093084B002255
:1021D8001146104610F0B2FAEDE700BFF8390108D1
:1021E800343D0108443D0108B84101084C3D01084F
:1021F800783D010870B108B5027A012A00D008BDFF
:10220800437A002BFBD0044B00221146104610F0F5
:1022180095FAF4E7704700BF8C3D010800B583B01C
:10222800054B1B5C0093054B00221146104610F02D
:1022380085FA03B05DF804FBC03D0108A43D010820
:1022480000283FD02DE9F0418CB003464278022A9D
:102258000AD0032A2FD01C4B00221146104610F03A
:102268006DFA0CB0BDE8F081027CB0F9121090F95B
:1022780014009C7DDD7D1E7E5F7E93F81AC093F866
:102288001BE093F81C80CDF82C80CDF828E0CDF821
:1022980024C008970796069505945C680494DB6843
:1022A8000393029001910092084B002211461046B8
:1022B80010F044FAD5E7064B00221146104610F0FC
:1022C8003DFACEE7704700BFC43D0108D83D01087C
:1022D800383E010808B5012806D0074B00221146F0
:1022E800104610F02BFA08BD044B00221146104688
:1022F80010F024FAF7E700BF683E0108543E0108D1
:1023080038B504460D464FF400610548FEF7ECFE6B
:1023180000B138BD2A4621460148FEF7ADFEF8E770
:1023280000F0030808B50A460149FEF7C1FE08BDDA
:1023380000F0030870B586B00024029403260196C5
:1023480001250095224B22462146204610F0F6F939
:10235800029405230193022300931E4B2246214633
:10236800204610F0EBF90294019600951A4B22468C
:102378002146204610F0E2F905A9204606F008FD9E
:10238800059B1A0EC3F307210291C3F30743019378
:102398000092124B22462146204610F0CFF905A99B
:1023A800284606F0F5FC059B1A0ED9B20391C3F333
:1023B80007210291C3F3074301930092084B224679
:1023C8002146204610F0BAF9204606B070BD00BF7D
:1023D800603B0108843B0108A83B0108CC3B01088D
:1023E800F03B010808B510F055F9FFF77DFD002016
:1023F80008BD000000B583B001AA0F4911F0BEF86E
:10240800012809D1019803280ED8C0B210F03CF970
:10241800002003B05DF804FB084B0022114610466B
:1024280010F08CF90220F4E7054B00221146104603
:1024380010F084F90220ECE77C3E0108803E010898
:10244800A83E010800B593B007A810F09BFC0798B8
:10245800A0F11203079300F5E0500E30079009A988
:1024680010F014FD0E9B03F26C7305930D9B013362
:1024780004930C9B0393099B02930A9B01930B9B68
:102488000093054B00221146104610F057F9002022
:1024980013B05DF804FB00BFEC3E010808B5FFF778
:1024A80011FD000008B54FF400610448FEF71CFE5A
:1024B80008B1002008BDFFF705FD00BF00F00308C4
:1024C80008B506F047FF10F1080F04D0B0F1FF3F40
:1024D80009D0002008BD084B00221146104610F014
:1024E8002DF90020F6E7054B00221146104610F0A2
:1024F80025F90120EEE700BF183F0108303F010829
:1025080000B583B0684606F09CFC30B96846FFF712
:10251800F9FC002003B05DF804FB0220FAE7000094
:1025280000B589B00DF11F0305930DF11E03049347
:102538000DF11D03039307AB02930DF11B030193E8
:102548000DF11A0300930DF1190306AA074911F0BA
:1025580015F8082803D0022009B05DF804FB06A886
:1025680006F083FC0028F7D00120F5E7E83C0108D5
:1025780000B585B06946012006F0B1FE18B101200A
:1025880005B05DF804FB6846FFF7D8FC0020F7E7C4
:1025980000B585B06946FFF735FD102803D0022045
:1025A80005B05DF804FB6946012006F0AFFE00287F
:1025B800F6D00120F4E700B585B06946002006F0A2
:1025C8008EFE18B1012005B05DF804FB6846FFF7E0
:1025D800B5FC0020F7E700B585B06946FFF712FDA6
:1025E800102803D0022005B05DF804FB69460020DE
:1025F80006F08CFE0028F6D00120F4E700B585B07F
:102608006946082006F06BFE18B1012005B05DF898
:1026180004FB6846FFF792FC0020F7E700B585B099
:102628006946FFF7EFFC102803D0022005B05DF8DB
:1026380004FB6946082006F069FE0028F6D0012050
:10264800F4E700B585B06946092006F048FE18B1E0
:10265800012005B05DF804FB6846FFF76FFC002019
:10266800F7E700B585B06946FFF7CCFC102803D022
:10267800022005B05DF804FB6946092006F046FE15
:102688000028F6D00120F4E700B583B001A806F0D1
:1026980031FC30B90198FFF78FFC002003B05DF8DA
:1026A80004FB0220FAE700B583B001A9FFF7DAFCC2
:1026B800042803D0022003B05DF804FB019806F05B
:1026C8002EFC0028F7D00120F5E700B583B0684656
:1026D80006F08BFB30B96846FFF714FC002003B006
:1026E8005DF804FB0220FAE700B589B00DF11F037D
:1026F80005930DF11E0304930DF11D03039307AB1E
:1027080002930DF11B0301930DF11A0300930DF1D0
:10271800190306AA074910F031FF082803D0022040
:1027280009B05DF804FB06A806F073FB0028F7D093
:102738000120F5E7E83C010800B583B001A806F0E0
:10274800ACFB30B90198FFF74FFC002003B05DF8EF
:1027580004FB0220FAE7000000B583B001AA09498A
:1027680010F00CFF012808D101987F2807D806F03F
:10277800A9FB002003B05DF804FB0220FAE7022061
:10278800F8E700BF7C3E010808B50378302B03D07A
:10279800312B07D0022008BD0121084605F04CFF67
:1027A8000020F8E70121022005F046FF0020F2E7AB
:1027B80008B506F00BFB00B908BD0220FCE70000D5
:1027C800F0B583B00546FDF7D3FC84B24A4B9B694C
:1027D800ADF800301B0C8DF8023001AA4749284695
:1027E80010F0CCFE01280AD0454B002211461046B5
:1027F8000FF0A4FF022023E00135013CA4B22A789F
:10280800A2F13003DBB2092B01D8012CF4D884B132
:102818003A2A0ED1631E9BB26A78302A12D0312A26
:1028280012D0384B0022114610460FF087FF0220C5
:1028380006E0354B0022114610460FF07FFF0220BC
:1028480003B0F0BD002600E0012623B3AF1C023C14
:10285800A4B204B3AB783A2B1DD10137013CA4B222
:102868000025F12D1FD8012C1DD917F815308DF82A
:10287800003007EB45035B788DF80130234B5A682D
:102888002A442349684610F079FE01282BD10135E6
:10289800023CA4B2E5E71F4B0022114610460FF098
:1028A8004DFF0220CCE704BB18484570019B03701C
:1028B8000022314605F064FF831D062B11D8DFE89E
:1028C80003F00C0E0616061004000020B8E705F009
:1028D80045FF01280DD00520B2E70820B0E7092000
:1028E800AEE70120ACE70220AAE70220A8E705200E
:1028F800A6E70320A4E700BFF8390108483F01080C
:102908004C3F0108A43F0108743F010868000020FB
:10291800FC3F0108CC3F010800B583B00DF107006A
:1029280006F026FB38B99DF80700FFF75DFB00208D
:1029380003B05DF804FB0220FAE708B50078A0F1BF
:102948003003012B01D9022008BD303818BF0120FF
:1029580006F01AFB0020F7E700B583B00DF1070079
:1029680006F06EF838B99DF90700FFF73DFB002027
:1029780003B05DF804FB0220FAE7000000B583B05D
:102988000DF107020A4910F0F9FD012809D19DF956
:102998000700C3B20F2B08D806F00CFB10B10120BA
:1029A80000E0022003B05DF804FB0220FAE700BF54
:1029B8000440010810B58EB00DF1100C134C0FCC6B
:1029C800ACE80F000FCCACE80F0094E803008CE8EB
:1029D80003000DF10F0006F04DF898B99DF80F307F
:1029E800092B11D80EAA02EB830252F8282C019267
:1029F8000093074B0022114610460FF09FFE00205F
:102A08000EB010BD0220FBE70220F9E7143A0108D6
:102A18000C40010800B583B00DF10702094910F018
:102A2800ADFD012808D19DF80700092808D806F04F
:102A38008FFA10B1022000E0022003B05DF804FB19
:102A48000220FAE70440010810B584B000F07EFEC9
:102A5800002847D004460DF10F0005F095FF002827
:102A680042D1A368012B05D1204B1B7813B19DF8E7
:102A78000F406CB19DF80F30413300931C4B00227E
:102A8800114610460FF05AFE0024204604B010BD2F
:102A98000DF10E0006F020FCA0B99DF80E30012BB8
:102AA80012D9042B10D0052B05D0072B03D0082BE7
:102AB80001D0092B0FD10F4B0022114610460FF001
:102AC8003DFEE2E70224E0E70B4B002211461046E8
:102AD8000FF034FED9E7094B0022114610460FF0DB
:102AE8002DFED2E70124D0E70224CEE762040020BD
:102AF8002C4001081C40010814400108244001082A
:102B080010B5044600F022FE40B32378422B16D0BD
:102B1800432B1FD0412B01D0022010BD8368012B0D
:102B280009D0002005F0D6FE10F1030F18D00028B8
:102B3800F3D00120F1E70B4B00221A70F1E783680C
:102B4800012B01D00720E8E70120064B187005F09B
:102B5800C1FEE9E7022005F0BDFEE5E70120DCE75C
:102B68000520DAE76204002000B583B00DF1070004
:102B780006F03CFA38B99DF80700FFF735FA00204F
:102B880003B05DF804FB0220FAE708B50078A0F16D
:102B98003003012B01D9022008BD303818BF0120AD
:102BA80006F030FA0020F7E700B583B001A806F078
:102BB800F9FA30B90198FFF797F9002003B05DF8EA
:102BC80004FB0220FAE7000000B583B001AA084917
:102BD80010F0D4FC012803D0022003B05DF804FBF8
:102BE800019806F053FB0028F7D00220F5E700BF54
:102BF8003440010800B583B001A806F0E8FA30B9FE
:102C08000198FFF771F9002003B05DF804FB02207A
:102C1800FAE7000000B583B001AA084910F0AEFC3D
:102C2800012803D0022003B05DF804FB019806F0E8
:102C38003DFB0028F7D00220F5E700BF344001082B
:102C480000B583B001A806F083FA30B90198FFF700
:102C58004BF9002003B05DF804FB0220FAE70000FE
:102C680000B583B001AA084910F088FC012803D0F8
:102C7800022003B05DF804FB019806F0E7FA00288B
:102C8800F7D00220F5E700BF3440010800B583B053
:102C980001A806F072FA30B90198FFF725F900206B
:102CA80003B05DF804FB0220FAE7000000B583B02A
:102CB80001AA084910F062FC012803D0022003B0E1
:102CC8005DF804FB019806F0D1FA0028F7D002203D
:102CD800F5E700BF3440010800B583B0684606F048
:102CE8009BF99DF80400FFF77FF9002003B05DF819
:102CF80004FB000010B582B00446684606F08CF963
:102D080001AA0A49204610F039FC012809D19DF88A
:102D180004300F2B08D8684606F084FA10B1022058
:102D280000E0022002B010BD0220FBE704400108C9
:102D380000B583B0684606F06FF90098FFF754F9BC
:102D4800002003B05DF804FB10B582B00446684665
:102D580006F062F96A460849204610F00FFC01287F
:102D680002D0022002B010BD684606F05BFA0028C7
:102D7800F8D00220F6E700BF3440010800B583B060
:102D88000DF1070006F060F938B99DF90700FFF763
:102D98002BF9002003B05DF804FB0220FAE70000DD
:102DA80000B583B00DF10702084910F0E7FB0128D0
:102DB80003D0022003B05DF804FB9DF9070006F07C
:102DC8001BFA0028F6D00220F4E700BF04400108EF
:102DD80000B583B00DF1070006F078FA38B99DF810
:102DE8000700FFF701F9002003B05DF804FB02209B
:102DF800FAE7000000B583B00DF10702094910F0A9
:102E0800BDFB012808D19DF80700072808D806F05F
:102E180060FA10B1022000E0022003B05DF804FB64
:102E28000220FAE70440010808B500F0F7FC00B9F1
:102E380008BD0320FCE708B500F016FD00B908BD81
:102E48000320FCE710B596B00DF10C0C6D4C0FCCBF
:102E5800ACE80F0094E807008CE807000AA800F027
:102E680085FD0B9B0093684B0022114610460FF01E
:102E780065FC0C9B0093654B0022114610460FF031
:102E88005DFC0A9B63B1032B0AD0012B67D00E9B14
:102E980000935F4B0022114610460FF04FFC4DE0A7
:102EA8000D9B00935B4B0022114610460FF046FC29
:102EB8000E9B0093584B0022114610460FF03EFC23
:102EC800564B0022114610460FF038FC109B009319
:102ED800534B0022114610460FF030FC119B009313
:102EE800504B0022114610460FF028FC0A9B43BBAA
:102EF8004D4B0022114610460FF020FC129B009308
:102F08004A4B0022114610460FF018FC0A9BFBB9E9
:102F1800139B0093464B0022114610460FF00EFCFF
:102F2800444B0022114610460FF008FC159B0093F5
:102F3800414B0022114610460FF000FC002016B04D
:102F480010BD3E4B0022114610460FF0F7FBD5E7A7
:102F58003B4B0022114610460FF0F0FBE0E70D9BBB
:102F680016AA02EB830252F84C2C01920093354BBF
:102F78000022114610460FF0E1FB0E9B0093324BE6
:102F88000022114610460FF0D9FB0F9B1A1D019223
:102F980000932E4B0022114610460FF0CFFB109BDA
:102FA80000931F4B0022114610460FF0C7FB119BE0
:102FB80000931C4B0022114610460FF0BFFB244B18
:102FC8000022114610460FF0B9FB129B0093174BD5
:102FD8000022114610460FF0B1FB1E4B002211468D
:102FE80010460FF0ABFB149B00931B4B00221146BD
:102FF80010460FF0A3FB194B0022114610460FF0A4
:103008009DFB9BE73C3A0108384001084C40010809
:103018008042010860400108784001089440010896
:10302800B4400108CC400108E840010810410108FB
:103038002C4101087841010898410108FC40010829
:1030480048410108BC410108D8410108E84101088C
:103058000042010818420108444201086042010880
:1030680010B5A6B00446302200211AA810F0F6FBCD
:103078000EAB0A930FAB099310AB089311AB0793F0
:1030880012AB069313AB059314AB049315AB0393E0
:103098000DAB029316AB019317AB009318AB19AAAB
:1030A8006649204610F06AFA0D2802D0022026B0A0
:1030B80010BD1AA800F05AFC129BD3B91A93199B99
:1030C800B3F57A7F21D25E4A02FB03F31B93189B68
:1030D80003F109021F2A00F294801C931A9BB3B9CA
:1030E800179AB2F5965F12D356498A420FD81D92A5
:1030F80013E0012B05D0022B05D0032B7FD11A93A7
:10310800DDE71A93DBE71A93D9E71B93DFE7032B75
:103118000DD0012B14D0022B75D1B3B9169AB2F584
:10312800167F12D348498A420FD81E9218E0179A80
:10313800B2F5965FEDD343498A42EAD81D92ECE78F
:10314800179A062AE7D81D92E7E7032B46D0012BEA
:103158004CD0022B59D1169AB2F57A7F57D81E92C5
:103168005BB1032B09D0022B07D0012B51D1159A43
:10317800511F03294FD8043A1F92149A012A4CD898
:103188002092139A012A38D9119A511EFE2946D83D
:1031980022925A1E022A08D9002B42D11099A1F571
:1031A80016742A4884423ED823914BB1022B07D08B
:1031B800032B05D0012B38D10F99022937D8249138
:1031C800012A06D90BB1032B33D10E9B042B32D81D
:1031D80025931AA800F0C0FB002068E7169A632A16
:1031E800B5D919498A42B2D81E92B9E7169A042A63
:1031F800AFD90C2AADD81E92B2E72192C4E70220BB
:1032080055E7022053E7022051E702204FE702204A
:103218004DE702204BE7022049E7022047E702205A
:1032280045E7022043E7022041E702203FE702206A
:103238003DE702203BE7022039E700BF9C42010836
:1032480040420F0038200700E0930400E80A03001A
:1032580000B583B001AA0A4910F090F9012805D1F8
:10326800019800F09BFB40B1012006E0054B0022CD
:10327800114610460FF062FA022003B05DF804FB15
:103288007C3E0108C442010800B583B001AA0A497E
:1032980010F074F9012805D1019800F0CDFC40B177
:1032A800012006E0054B0022114610460FF046FAB1
:1032B800022003B05DF804FB7C3E0108EC420108E3
:1032C80030B595B010AB019311AB009312AB13AAB4
:1032D8001F4910F053F9042834D1139BB3F57A7FB2
:1032E80003D21C4A02FB03F31393129BB3F57A7FB4
:1032F80003D2184A02FB03F31293139C002500E043
:103308000135109B9D421BD204A800F02FFB0594A9
:1033180004A800F021FB109B0293019500940E4B2A
:103328000122002108460FF009FA012000F036FBBF
:1033380058B9119B1C44129BA342E1D2139CDFE7AE
:10334800002000E0022015B030BD0320FBE700BFDD
:103358001843010840420F002443010808B500F053
:103368000FFB044B0022114610460FF0E7F900202E
:1033780008BD00BF4043010830B583B00378302B47
:1033880003D0312B05D002201AE00121084605F0B0
:1033980053F90121022005F04FF90A4D0024009449
:1033A800094B22464FF4FA5128460FF0EDFD284606
:1033B8000FF0A2FE054A214608200FF0F1FB204637
:1033C80003B030BD58030020C52000088D20000838
:1033D80008B5FDF757FCFEF707FE002008BD10B53D
:1033E80000210C4600E00131435C1BB1082BFAD1E7
:1033F8000134F8E74FF0000C17E00133C25C082AEB
:10340800FBD1002B17DD013B03E0C2189278C254B0
:1034180001338A1E9A42F8D803F1010E0021C154E3
:1034280000F80E100CF1010C1146A44501D200233E
:10343800E4E7002010BD4FF0FF30FBE708B50F4A66
:1034480011684B1C1360092B0DD00D490A68531CD9
:103458000B6000780B498854082B0AD00A4B1B686C
:1034680003B1984708BD094B01221A60034B196044
:10347800F4E7034B00221A60F0E700BF6C04002059
:1034880074040020980600206404002068040020CA
:1034980010B504460A2800D90A24054B53F82430ED
:1034A8000022114610460FF049F90028F5D110BD49
:1034B800A457010870B50278412A03D00120FFF70C
:1034C800E7FF70BD03464278542A01D00120F6E791
:1034D80080780028F3D03F2812D09C1C0025262D88
:1034E80065D8344B05EB450103EBC10256683246FB
:1034F80053F83110204610F0B9F908B30135EEE75A
:103508002D4B0022114610460FF018F90028F7D16C
:1035180000240DE004EB4402264B03EBC2035B6975
:103528000022114610460FF009F90028F2D10134A3
:10353800262CEFD90FF08EF80128FBD10020BEE72A
:10354800A019A35D3D2B0CD03F2B22D00BB101203D
:10355800B5E705EB4505174B03EBC5031B69984712
:10356800ADE743783F2B08D005EB4505114B03EB3E
:10357800C503DB6801309847A1E78378002BF3D1B6
:1035880005EB45050B4B03EBC5039B6801309847DA
:1035980095E705EB4502074B03EBC2035B69002285
:1035A800114610460FF0CAF80028F2D187E701202B
:1035B80085E700BFFC530108BC43010810B5044669
:1035C80008480FF053F80CB1074B1C600023074A5A
:1035D8001360074A1360074A1360074A1360074AD3
:1035E800136010BD453400086404002074040020F2
:1035F800700400206C040020780400206804002077
:1036080070B5454B1B68012B27D10420FFF740FFFD
:10361800EFF3108272B6414B1968414B19600023D1
:1036280040490B603C490B6082F310883E4A1360A6
:1036380013E001333A4A1360082B36D0EFF31081B8
:1036480072B6384A1368013B136081F3108806206C
:10365800FFF71EFF344B00221A60324B1B68002B09
:1036680059D02F4B1B68314AD25C012AE1D00D2A70
:103678001FD00A2A1DD02C49096840F21B2081421C
:103688003ED00133264803604C1C27480460284874
:103698004254082B3BD0EFF3108172B6214A1368CD
:1036A800013B136081F31088D7E7134600221A60A4
:1036B800C4E701331A4A1360082B1DD0EFF31081B9
:1036C80072B6184A1368013B136081F31088164BD1
:1036D8001B68002BC1D0164C0025E554EFF310866B
:1036E80072B62046FFF77BFE86F310882046FFF768
:1036F800E1FE0D4B1D60B0E7134600221A60DDE7BE
:10370800094B00221A600420FFF7C2FEA5E7044B0C
:1037180000221A60BFE770BD68040020740400200E
:10372800700400206C040020780400209806002013
:103738007C040020044B00221A605A609A60DA6008
:1037480001225A601A607047A0060020004870479E
:10375800A006002038B504460D460A4600210FF0A1
:103768000EF9002202200CE0C91014F801C003F081
:10377800010302F0070E03FA0EF34CEA0303635445
:103788000132B2EBC50F0DDA030983EA102303F007
:10379800010343EA4003C3F308001146002AE3DAB1
:1037A800D11DE1E7002038BD08B50120024B1860A3
:1037B8000FF002F908BD00BFE007002008B5054971
:1037C8000A80054A13700120044B18600FF0F4F8C2
:1037D80008BD00BFCE070020CC070020D807002076
:1037E80008B50120024B18600FF0E6F808BD00BFCD
:1037F800DC07002008B50120024B18600FF0DCF848
:1038080008BD00BFD407002008B50120024B18608E
:103818000FF0D2F808BD00BFD00700200E4B1B7870
:1038280013F0010F15D110B543F001030A4A1370C4
:103838000A4B0122002108460EF080FF084BDC6B82
:10384800084B4FF6FF7293F908105868A0470020FC
:1038580010BD4FF0FF307047E4070020D057010833
:10386800006101087000002030B593B0344B1B781C
:1038780013F0020561D143F00203314A1370314B52
:103888000122002108460EF059FF2F4BDB682F4C10
:10389800606898472E4A02AB92E8030083E8030069
:1038A800E36A0BB10833DDB28DF83050274CE3687A
:1038B800059323690693032307938DF82E3002ABF3
:1038C800089340F2FF13ADF82C3001228DF8322016
:1038D800F2238DF8333041F22103ADF828308DF80A
:1038E8003420194B5D6F002304A91846A847A36923
:1038F800EBB9154B5B6B6FF07F409847124CE36D4B
:103908009847FDF797FE236C002098470090114BCD
:103918000122002108460EF011FFE36A9847084A81
:10392800137823F002031370002013B030BD064B48
:103938005B6E6FF07F409847E0E74FF0FF30F4E7A9
:10394800E4070020E057010800610108700000202A
:10395800583A0108F057010808B5014630220248D4
:103968000FF002F8002008BD7000002008B53022D2
:1039780002490EF0F9FF002008BD00BF70000020CA
:1039880010B50024034B1C70034BDB6A9847204694
:1039980010BD00BFE4070020006101082DE9F041D7
:1039A8008CB0924B1B7813F0040740F01881064640
:1039B80043F004038D4A13708D4B01220021084601
:1039C8000EF0BCFE8B488C4B03608C4B83608C4B99
:1039D80043608C4BC3608C4B03618C4B1B689847CE
:1039E8008B4B93F820108B48FFF7B4FE01244DE071
:1039F8003B468DF82730864A536A0B931369059323
:103A0800032306938DF8263003AB079340F2FF1388
:103A1800ADF8243001238DF82830F2238DF82930B1
:103A280041F22103ADF8203000208DF82A00774BB1
:103A38009D6F40F6B83392F9082005A9A847734D41
:103A4800AB6A734A92F820107248984701200FF029
:103A58007BF8EB6A9847704B1B68012B00F0A1803C
:103A68006E4B1B68012B00F0A3806D4B1B68012B6C
:103A780000F0A5804FF4FA70FDF7DCFD0023664ADC
:103A88001360664A1360664A13600134B44200F357
:103A98009D8001960094634B0122002108460EF098
:103AA8004DFE5A4BDB685A4D686898472B685BB9DE
:103AB8005D4A03AB92E8030083E80300EB6A002B3E
:103AC80096D00733DBB294E7032B11D0012B41D0FA
:103AD800022B40F087804E4A136905934B4B9D6F2C
:103AE80040F6B83392F9082005A90220A847A6E7AE
:103AF8004D4A03AB92E8030083E80300444BDB6ABA
:103B080033B30733DBB28DF82730414A1369059385
:103B1800032006908DF8260003AB079340F2FF13AD
:103B2800ADF8243001238DF82830F2238DF82930A0
:103B380041F22103ADF8203000238DF82A30334BB1
:103B48009D6F40F6B83392F9082005A9A84776E793
:103B58003B46D8E72E4A137B8DF81530137C8DF839
:103B68001430137D8DF8163092F828308DF8173000
:103B78000823ADF818304FF000088DF81A8001209E
:103B88008DF81B008DF81C80204D40F6B83392F953
:103B9800082005A9D5F878C0E047AB6D404698479E
:103BA8004DE7224B0122002108460EF0C7FD57E7DA
:103BB8001F4B0122002108460EF0C0FD55E71D4BA2
:103BC8000122002108460EF0B9FD53E7074A137891
:103BD80023F00403137000200CB0BDE8F0814FF00F
:103BE800FF30F9E74FF0FF30F6E700BFE4070020A9
:103BF8000C580108B0070020B1370008C537000885
:103C0800E9370008FD37000811380008006101088D
:103C180070000020B0060020E0070020DC0700202C
:103C2800D007002018580108583A010828580108F8
:103C380034580108445801082DE9F04794B0064665
:103C48003822002106A80FF009FE944B1B7813F0C8
:103C5800080840F01981002E40F3198143F0080349
:103C68008E4A13708E488F4B03608F4B83608F4B47
:103C780043608F4BC3608F4B03618F4B1B68984722
:103C880000252F46012484E043469DE0012B40F0A7
:103C980001818A4B1A7B8DF845201A7C8DF84420C7
:103CA8001A7D8DF8462093F828308DF84730082380
:103CB800ADF848304FF000098DF84A9001208DF892
:103CC8004C008DF84D90DFF8F0A11E23024606A99E
:103CD800DAF874C0E047DAF85830484698479EE06A
:103CE800754B5B6E41F288309847A2E0744BB3F88D
:103CF80000900FFA89F9734B93F800A04FFA8AFAEB
:103D0800714B0122002108460EF018FD6B4B1B6811
:103D180053B9CDF804A0CDF800906C4B01220021D6
:103D280008460EF00BFD8FE0CDF804A0CDF800900A
:103D3800674B0122002108460EF000FD84E0654B28
:103D48000122002108460EF0F9FC82E0624B0122B4
:103D5800002108460EF0F2FC80E001355F4B1B683D
:103D6800012B00F0868000205C4B18605C4B1860CB
:103D78005C4B1860642305FB03F37A19B3FBF2F379
:103D8800029301960094584B012201460EF0D6FC8E
:103D98000134B4426FDC484BDB68DFF82091D9F876
:103DA80004009847D9F80030002B7FF46FAF4F4AD2
:103DB80004AB92E8030083E80300D9F82C30002B09
:103DC8003FF462AF0833DBB28DF838303B4BDA682A
:103DD80007921B690893032309938DF8363004ABC7
:103DE8000A9304238DF8373040F2FF13ADF83430CE
:103DF80001228DF83A20F2238DF83B3041F221035D
:103E0800ADF8303000208DF83C00FF230B938DF87F
:103E18003900294BD3F87490034606A9C847274BA5
:103E28009B69002B7FF45CAF234B5B6B41F28830BE
:103E3800984701200EF088FE1F4BDB6A9847274BF6
:103E48001B68012B3FF452AF254B1B68012B3FF435
:103E580076AF244B1B68012B3FF478AF204B1B68CF
:103E6800012B3FF47AAF1F4B1B68012B7FF476AF11
:103E780073E7013777E7094A137823F008031370CB
:103E8800002014B0BDE8F0874FF0FF30F9E74FF09D
:103E9800FF30F6E74FF0FF30F3E700BFE4070020FC
:103EA800B0070020B1370008C5370008E937000817
:103EB800FD37000811380008006101087000002073
:103EC800CE070020CC070020505801085C58010894
:103ED8007C580108A058010844580108D807002058
:103EE800D4070020D0070020B0580108583A01082C
:103EF80008B500F03FF808BD08B500F07DF808BD2A
:103F080008B500F0C7F808BD08B500F0C5F808BD49
:103F180008B500F0C3F808BD08B500F0C1F808BD41
:103F28000D48854600F0C1F80C480D490D4A00239C
:103F380002E0D458C4500433C4188C42F9D30A4A56
:103F48000A4C002301E013600432A242FBD30FF0B5
:103F58009FFCFDF78EF9FEE700800020000000209E
:103F680038010020C062010838010020C81F002065
:103F7800FEE700002DE9F04186B000240194029488
:103F88000394049405944FF0B043DA6C42F00402B1
:103F9800DA64DB6C03F004030093009B102701979D
:103FA8000123029303230493124D01A9284601F02B
:103FB800FFF94FF02008CDF8048001A9284601F048
:103FC800F7F90826019601A9284601F0F1F92246D9
:103FD8004146284601F03CFB22463946284601F076
:103FE80037FB22463146284601F032FB204606B010
:103FF800BDE8F0810008004810B5032813D8DFE8B1
:1040080000F002142536224C00220821204601F037
:104018001FFB00221021204601F01AFB002220215C
:10402800204601F015FB002010BD194C0122082183
:10403800204601F00DFB01221021204601F008FB6B
:1040480000222021204601F003FBECE7104C01225E
:104058000821204601F0FCFA01221021204601F037
:10406800F7FA01222021204601F0F2FADBE7084C9A
:1040780001220821204601F0EBFA002210212046F7
:1040880001F0E6FA01222021204601F0E1FACAE710
:104098000008004800207047012070470120704741
:1040A80008B90F20704716207047704710B50320D5
:1040B80000F076FD01F064FC064B18600F20FDF758
:1040C800ABFA10B10124204610BD0446FDF77CF977
:1040D800F9E700BFA00000204FF0E022136923F0A9
:1040E8000203136170474FF0E022136943F00203A3
:1040F80013617047014BD3F8900570470070FF1F9C
:10410800014BD3F8940570470070FF1F014BD3F89B
:10411800980570470070FF1F024A536823F0010397
:1041280053607047002004E0024A536823F00203FA
:1041380053607047002004E0024A536823F00403E8
:1041480053607047002004E030B583B0002301932A
:10415800002800F006810446836DBBB1226893688D
:1041680013F0805F1FD1936823F0104323F01703E7
:1041780043F0805393607C4B1B689B097B4AA2FBEE
:1041880003239B0901335B00019309E0FCF716FD4B
:104198000023E36584F85430E0E7019B013B019379
:1041A800019B002BF9D12268936813F0805F40F0DF
:1041B8009A80A36D43F01003A365E36D43F00103F8
:1041C800E3650120936813F0040300D00123A16D77
:1041D80011F0100F40F0BE80002B40F0BB80A36DA3
:1041E80023F4817343F00203A365936813F0010F6E
:1041F8004FD1A368217E43EA8133617E43EAC1330C
:10420800A57E43EA4533216B09B14FF480510B4336
:10421800E1680B432169002967DB4FF400110B4368
:1042280094F82C1043EA410394F8201001295FD038
:10423800616A21B101F4E071A56A29430B43D16891
:1042480021F4FE3121F4FF711943D160636803F052
:104258004043E26C1A4394F83C10012955D0216878
:104268000D69434B2B4013430B616368B3F1404F17
:104278000FD0B3F1804F0CD0B3F1004F09D03D49B6
:10428800D1F8082722F4701203F470131343C1F80D
:1042980008372168636B4A6922F0070213434B61B0
:1042A8002268A16B536923F0700343EA0113536139
:1042B8002369002B33D12268936A63F00F0393625A
:1042C80023685B6903F00703626B9A4239D0A36DD8
:1042D80023F0120343F01003A365E36D43F00103D9
:1042E800E36501203BE000206CE721F0004196E700
:1042F80015B943F480339BE7A16D41F02001A16516
:10430800E16D41F00101E16592E7216C0B43616CBD
:104318000B43A16C0B431A4342F001029FE7B3F52C
:10432800001FCDD121688B6AE369013B9B0003F034
:104338001C036FF00F0202FA03F3226E13438B6221
:10434800BEE70023E365A36D23F0030343F00103F5
:10435800A36504E0A36D43F01003A365012003B037
:1043680030BD0120FBE700BFA0000020632D3E0503
:1043780002FCFF1F00200140F8B504460D464669BF
:10438800082E05D00368DB6813F0010F1ED1042640
:10439800FDF744F9074623681A6832421CD1B5F183
:1043A800FF3FF8D0FDF73AF9C31BAB4201D8002D07
:1043B800F1D123681B683342EDD1A36D43F00403A8
:1043C800A365002384F85430032028E0836D43F06C
:1043D80020038365012022E0A26D42F40072A265E9
:1043E800DA6812F4406F15D1A27E9AB91A6812F0F1
:1043F800080F0FD09A6812F0040F11D15A6822F0F2
:104408000C025A60A36D23F4807323F0010343F078
:104418000103A365207E60B923680C221A60F8BDE9
:10442800A36D43F02003A365E36D43F00103E36547
:10443800F0E70020F3E70368186C704770B483B0A6
:1044480000220192046990F85420012A00F00381A7
:104458000346012280F854200268906810F0040F87
:104468000AD09A6D42F020029A650120002283F852
:10447800542003B070BC70474868022800F09C8044
:10448800B4F1004F27D0754DAC4224D01C6E00F01B
:104498001F000F25854024EA05050C68C4F31106A2
:1044A800002E31D1C4F3846484402C431C664C68CC
:1044B800A0080130DD69A84213D80D68906A04F09D
:1044C8001F040F26A64020EA0600C5F38365A54011
:1044D8002843906205E00C68906AC4F311042043F5
:1044E80090621C680D688A68606920EA052002EA03
:1044F800052222F07C4222F0FF02024362610A6830
:10450800002A09DB0020B1E794FAA4F414B1B4FA44
:1045180084F4C9E72024C7E75149D1F8080700F017
:10452800E071504CA24207D04F4CA24226D04F4CCB
:10453800A24232D0002099E710F4000FF4D141F4E0
:1045480000014748D0F8082722F0E0721143C0F86C
:104558000817474A126892094649A1FB02129209B4
:10456800013202EB42029200019202E0019A013A02
:104578000192019A002AF9D1002077E710F0807F94
:10458800D5D141F080713648D0F8082722F0E07282
:104598001143C0F80817002068E710F4800F58D1BD
:1045A80041F480022E48D0F8081721F0E0710A4340
:1045B800C0F80827002059E7B4F1004F02D0274877
:1045C800844206D10C68906AC4F3110420EA0400FE
:1045D80090620A68002A01DB002047E72049D1F8E9
:1045E80008172048824207D01F48824213D01F482C
:1045F80082421FD0002039E701F0A07100F110407D
:1046080000F58830D0F8082722F0E0721143C0F88E
:10461800081700202AE701F4400200F1084000F5DD
:104628006040D0F8081721F0E0710A43C0F8082765
:1046380000201BE701F0C07200F10C4000F580304B
:10464800D0F8081721F0E0710A43C0F808270020C5
:104658000CE700200AE702200BE700BF04000080F7
:1046680000200140001000B0004000B8002000B455
:10467800A0000020632D3E0538B503689A6812F043
:10468800040F2AD004469A6812F0020F07D19A68DC
:1046980022F0004222F0170242F010029A60FCF762
:1046A800BDFF054623689B6813F0040F13D0FCF781
:1046B800B5FF431B022BF5D923689B6813F0040F41
:1046C800F0D0A36D43F01003A365E36D43F001033D
:1046D800E365012002E0002000E0002038BD000072
:1046E80030B583B00023019303689A6812F0010F74
:1046F8005BD1044699682E4A114217D19A6822F074
:10470800004222F0170242F001029A60294BD3F8C6
:10471800083713F4000F19D0274B1B689B09274A49
:10472800A2FB03239B09013301930CE0836D43F043
:1047380010038365C36D43F00103C365012035E0B1
:10474800019B013B0193019B002BF9D1637E012B57
:1047580001D100202AE0FCF761FF054623681A68AA
:1047680012F0010F1FD19A6812F0010F07D19A6851
:1047780022F0004222F0170242F001029A60FCF790
:104788004DFF401B0228E9D923681B6813F0010F6D
:10479800E4D1A36D43F01003A365E36D43F0010377
:1047A800E365012002E0002000E0002003B030BDF6
:1047B8001700008000200140A0000020632D3E0566
:1047C80003689B6813F0040F28D110B5044690F8CD
:1047D8005430012B24D0012380F85430FFF780FF98
:1047E800C0B9A36D23F4706323F0010343F480730D
:1047F800A3650023E36522681C21116084F8543006
:104808002268936823F0004323F0170343F004035E
:10481800936010BD002384F85430FAE702207047F3
:104828000220F6E738B504460268936813F00203DD
:1048380000D00123916811F0010F39D0002B39D134
:10484800936803F00503012B09D0A36D43F010030F
:10485800A365E36D43F00103E365012029E0936854
:1048680023F0004323F0170343F002039360236807
:1048780003221A60FCF7D2FE054623689B6813F0F2
:10488800010F13D0FCF7CAFE401B0228F5D9236894
:104898009B6813F0010FF0D0A36D43F01003A365DC
:1048A800E36D43F00103E365012002E0002000E02E
:1048B800002038BD0020FCE770B5002856D004461B
:1048C800836D43F002038365FFF7D6FE0646002892
:1048D8003DD02268536823F4677323F003035360C1
:1048E800236840F29F321A602268D168204B0B403F
:1048F800D3602268136923F0404313612268536927
:1049080023F0070353612268136A03F0F02313624C
:104918002268536A03F0F02353622268D36A03F0D3
:10492800F023D36223689A6A00259D62114AD2F85F
:10493800083723F0FE73C2F808372046FCF754F90D
:104948002566E565A56584F85450304670BD204657
:10495800FFF768FF064608B90123A3652268936834
:1049680023F0104323F017039360B2E70126ECE726
:1049780000023E830020014090F85430012B19D0EA
:1049880010B50446012380F85430FFF775FE18B1BE
:10499800002384F8543010BD2046FFF743FF002859
:1049A800F6D1A36D23F4807323F0010343F00103D0
:1049B800A365EDE702207047F0B583B000230193AB
:1049C80090F85430012B00F094800446012380F8BD
:1049D8005430FFF727FF054623689A6812F0010252
:1049E80009D0A36D43F01003A365002384F8543065
:1049F800284603B0F0BDA16D21F4817141F0020198
:104A0800A165DE6826F4FF4626F07C063604360CDF
:104A1800D96821F4004121F00301D960104605E06E
:104A2800D3F8B43003F07F0318440132072A1ED8A4
:104A380021688B6823F0004323F0170343F00043F9
:104A48008B60236899680029EADA019B0133019396
:104A5800019BB3F52E3FF4D3A36D23F0120343F06B
:104A68001003A365002384F854300125C0E7B0FB88
:104A7800F2F02268936823F0004323F0170343F011
:104A8800010393602268D2F8B43023F07F031843FF
:104A9800C2F8B4002268936823F0004323F0170398
:104AA80043F002039360FCF7B9FD074623689A6850
:104AB80012F0010F09D1DA683243DA60A36D23F0EE
:104AC800030343F00103A3658FE7FCF7A7FDC31BAE
:104AD800022BEBD923689B6813F0010FE6D0A36D76
:104AE80043F01003A365E36D43F00103E36501257B
:104AF8007EE702257CE70000002807DB00F01F02A4
:104B0800400901239340024A42F82030704700BF11
:104B180000E100E000280CDB00F01F02400901233F
:104B280093402030034A42F82030BFF34F8FBFF341
:104B38006F8F704700E100E0002808DB0901C9B267
:104B480000F1604000F5614080F80013704700F004
:104B58000F000901C9B2014B1954704714ED00E068
:104B680000B500F00700C0F1070CBCF1040F28BF26
:104B78004FF0040C031D062B0FD9C31E4FF0FF3E48
:104B88000EFA0CF021EA000199400EFA03FE22EA1F
:104B98000E0241EA02005DF804FB0023EEE7000084
:104BA800074AD36823F4E0631B041B0C000200F4DB
:104BB800E060034343F0BF6343F40033D3607047BE
:104BC80000ED00E010B50446054BD868C0F302209C
:104BD800FFF7C6FF01462046FFF7AEFF10BD00BF36
:104BE80000ED00E008B5FFF787FF08BD08B5FFF73F
:104BF80091FF08BD10B4C46CD0F850C0C4F804C00C
:104C0800446D24B1846DD0F85CC0C4F804C0446C11
:104C180004F01C0C012404FA0CF4D0F840C0CCF8C1
:104C28000440046863608368102B05D003689960AA
:104C38000368DA6010BC704703689A600368D9603B
:104C4800F8E700000368144A934216D8426C22F031
:104C5800030202F1804202F502328264DBB2083BB1
:104C68000E4AA2FB03231B090D4AC26403F01F036B
:104C7800012202FA03F303657047426C22F0030134
:104C8800084A0A448264DBB2083B044AA2FB0323B5
:104C98001B090733E8E700BF07040240CDCCCCCCA2
:104CA800800802401C080240436803F07F03074A5B
:104CB8001A4492004265064A8265013B03F00303E9
:104CC800012202FA03F3C365704700BF3F82001058
:104CD80040090240002860D010B504460268304BF5
:104CE8009A4242D82F4B13442F49A1FB03131B09A7
:104CF8009B0043642D4B0364022384F8253013681A
:104D080023F4FF4323F07003136021680A68A36843
:104D1800E06803432069034360690343A0690343D0
:104D2800E0690343206A034313430B602046FFF7FF
:104D380089FFA368B3F5804F22D06368A26C03F0A3
:104D48007F031360E36C226D5A606368013B032B99
:104D580019D900236365A365E3650020E063012397
:104D680084F8253084F8240010BD114B13440E49F3
:104D7800A1FB03131B099B0043640E4B0364BBE7B1
:104D880000236360D9E72046FFF78EFF636D00229A
:104D98001A60A36DE26D5A60DFE70120704700BF1B
:104DA80007040240F8FFFDBFCDCCCCCC0000024088
:104DB800F8FBFDBF0004024000284BD038B504467C
:104DC8000268136823F0010313600268224B9A42B9
:104DD8002CD8224B13442249A1FB03131B099B0027
:104DE8004364204B036400251560636C03F01C02C8
:104DF800216C012393404B602046FFF723FFA36CEF
:104E08001D60E36C226D5A606368013B032B18D95F
:104E180000206065A065E065E06220636063A063D0
:104E2800E06384F8250084F8240038BD0E4B134451
:104E38000B49A1FB03131B099B0043640B4B036441
:104E4800D1E72046FFF730FF636D1D60A36DE26D6B
:104E58005A60DDE70120704707040240F8FFFDBFF4
:104E6800CDCCCCCC00000240F8FBFDBF00040240D2
:104E780038B5044690F82400012843D0012084F86E
:104E8800240094F82500C0B2012806D08023E363EB
:104E9800002384F82430012038BD022084F825003E
:104EA8000020E0632568286820F00100286020467B
:104EB800FFF7A0FE236BD3B12268136843F00E03FB
:104EC8001360A36C1A6812F4803F03D01A6842F486
:104ED80080721A60636D1BB11A6842F480721A609E
:104EE8002268136843F0010313600020D4E72268A6
:104EF800136823F0040313602268136843F00A035D
:104F08001360DEE70220C7E70346002834D090F894
:104F18002520D2B2022A06D00422C263002280F8D9
:104F280024200120704701680A6822F00E020A60F6
:104F3800816C0A6822F480720A6001680A6822F0AB
:104F480001020A60426C02F01C01006C01228A40D6
:104F58004260DA6C196D51605A6D32B1116821F4F2
:104F6800807111609A6DD96D5160012283F82520F6
:104F7800002083F8240070470120704708B590F896
:104F88002530DBB2022B03D00423C363012008BD04
:104F98000268136823F00E0313600268136823F095
:104FA80001031360826C136823F480731360436CED
:104FB80003F01C02016C012393404B60C36C026D2B
:104FC8005A60436D33B11A6822F480721A60836D97
:104FD800C26D5A60012380F82530002380F8243000
:104FE800836B13B198470020D1E70020CFE700007A
:104FF80038B5036C196804682568436C03F01C0312
:1050080004229A400A4215D015F0040F12D02368E2
:1050180013F0200F03D1236823F004032360436CAB
:1050280003F01C02016C042393404B60036B03B133
:10503800984738BD02229A400A4228D015F0020F3C
:1050480025D0236813F0200F06D1236823F00A0324
:105058002360012380F8253002681C4B9A420ED940
:10506800436C03F01C0202239340194A5360002347
:1050780080F82430C36A002BDBD09847D9E7436C0B
:1050880003F01C0202239340124A5360EFE7082200
:1050980002FA03F30B42CCD015F0080FC9D02368ED
:1050A80023F00E032360436C03F01C03016C012200
:1050B80002FA03F34B60C26380F82520002380F8CE
:1050C8002430436B002BB4D09847B2E780000240ED
:1050D800000402400000024078B103681A6811F029
:1050E800100F04D011F4801F04D042F480121A600B
:1050F8000020704722F48012F9E701207047000071
:1051080010B4054C616941F0010161610260BFF3AF
:105118006F8F436010BC7047004000580C4A5369B9
:1051280043F480235361EFF3108C72B6402351F897
:10513800042B40F8042B013B13F0FF03F7D1044B79
:105148001B6913F4803FFAD18CF31088704700BFB5
:1051580000400058094B5B69002B01DB00207047B9
:10516800064B074A9A6002F188329A605B69002B05
:1051780001DB002070470120704700BF0040005845
:1051880023016745054B5A6942F000425A615B6941
:10519800002B01DB012070470020704700400058B9
:1051A80038B50546FCF73AFA04461B4B1B6913F45D
:1051B800803F06D0FCF732FA001BA842F5D3032043
:1051C80038BD154B1B6913F0010F15D123F470532B
:1051D80023F005031B041B0C0BB10F4A1361ABB979
:1051E8000D4B1B6913F4802F14D0FCF717FA001B22
:1051F800A842F5D30320E3E7074A0121116123F40C
:10520800705323F005031B041B0CE5E7034A5360A6
:105218000120D5E70020D3E700400058E807002028
:10522800F8B51F46154B1B78012B25D004460D46B3
:105238001646124B01221A7000225A604FF47A70F7
:10524800FFF7AEFF70B9012C10D031462846FFF7A2
:1052580065FF4FF47A70FFF7A3FF094A536923EA01
:1052680004035361054B00221A70F8BD32463B46D1
:105278002846FFF745FFECE70220F6E7E80700209D
:1052880000400058034A536943F4803343F0040351
:105298005361704700400058184B1B6803F40073B3
:1052A800012B06D0154B1B6803F48063012B12D029
:1052B8007047124B1A6822F400721A601A6842F496
:1052C80000621A601A6822F400621A601A6842F4CE
:1052D80000721A60E6E7094B1A6822F480621A60C5
:1052E8001A6842F480521A601A6822F480521A60CE
:1052F8001A6842F480621A60DAE700BF004000587A
:10530800034A536923F47E7323F002035361704701
:1053180000400058054A536923F47E7343EAC000ED
:1053280040F4803040F0020050617047004000585F
:10533800F8B51E4B1B78012B35D005460F461B4B85
:1053480001221A7000225A604FF47A70FFF728FF82
:10535800064618BB2B68042B13D04FF0FF333B6075
:105368006C686B68AA681344A34213D92046FFF7F8
:10537800D1FF4FF47A70FFF713FF064648B901349E
:10538800EFE7FFF77FFF4FF47A70FFF709FF064654
:1053980002E03C60FFF7B4FFFFF77EFF034B0022FB
:1053A8001A703046F8BD0226FBE700BFE807002068
:1053B80070B5002369E085685E000324B44025EADF
:1053C8000405CC68B4402C438460456825EA0C0584
:1053D8004C68C4F300149C402C43446066E0DD082C
:1053E800083550F8254003F0070C4FEA8C0C4FF0B5
:1053F8000F0E0EFA0CFE24EA0E0E0C6904FA0CF4D9
:1054080044EA0E0440F8254067E0022400E0002446
:1054180004FA0EF42C430CF1020C4B4D45F82C40C9
:105428004A4C2568D44325EA0206D1F804C01CF486
:10543800801F01D042EA0506444D2E606D6804EADB
:105448000506D1F804C01CF4001F01D042EA050685
:105458003E4D6E60D5F8805004EA0506D1F804C0C8
:105468001CF4803F01D042EA0506384DC5F880603B
:10547800D5F884502C404E6816F4003F01D042EA1B
:105488000504324AC2F8844001330A6832FA03F448
:1054980058D04FF0010C0CFA03FC1CEA0202F3D0BE
:1054A8004C6804F00304013C012C84D94C6804F0D6
:1054B8000304032C0CD0C4685D004FF0030C0CFAF5
:1054C80005FC24EA0C0C8C68AC4044EA0C04C4606B
:1054D8004C6804F00304022C81D004684FEA430EA0
:1054E8004FF0030C0CFA0EFC24EA0C0C4C6804F088
:1054F800030404FA0EF444EA0C0404604C6814F43F
:10550800403FC1D04FEA930C0CF102050E4C54F801
:10551800255003F0030E4FEA8E0E072404FA0EF40A
:1055280025EA0405B0F1904F3FF471AF084CA04252
:1055380006D004F58064A0423FF467AF072467E70C
:10554800012465E770BD00BF000001400008005855
:1055580000040048002331FA03F271D0F0B52EE0C0
:10556800022500E0002505FA0CF5A54249D004689B
:105578005D004FF0030C0CFA05FC44EA0C040460CF
:105588004FEAD30E0EF1080E50F82E4003F007062E
:10559800B6000F25B54024EA050440F82E4084687B
:1055A80024EA0C048460446824EA02024260C26867
:1055B80022EA0C02C260013331FA03F23FD0012221
:1055C8009A4012EA0107F6D09E08B51C1D4C54F803
:1055D800254003F0030C4FEA8C0C4FF0070E0EFA2F
:1055E8000CFE0EEA0404B0F1904FBBD0164DA84251
:1055F80005D005F58065A842B2D00725B3E7012597
:10560800B1E7124CD4F8805025EA0705C4F8805059
:10561800D4F8845025EA0705C4F88450256825EA9B
:1056280007052560656825EA07056560054D0236AA
:1056380055F8264024EA0E0445F8264097E7F0BDC1
:10564800704700BF000001400004004800080058EF
:105658000AB18161704781627047436901EA0302B8
:1056680021EA030141EA024181617047024A136855
:1056780043F48073136070470004005810B50C465B
:10568800A0B90F4B5B6913F4007F0AD10D4A136967
:1056980023F004031361012C10D040BF20BF20BFAA
:1056A80010BD00F021F80028F0D0F9E7044B5B6941
:1056B80013F4007FEAD100F00FF8E7E730BFEFE717
:1056C8000004005800ED00E0024B186800F4C060C8
:1056D800704700BF00040058024A136843F480432F
:1056E80013607047000400580F4A136823F480437E
:1056F80013600E4B1B68322202FB03F30C4AA2FB19
:1057080003239B0C00E0013B074A526912F4007F17
:1057180001D0002BF7D1044B5B6913F4007F01D152
:10572800002070470320704700040058A0000020A4
:1057380083DE1B430C4A136823F0070343F002037C
:1057480013600A4A136943F004031361012808D05F
:1057580040BF20BF20BF054A136923F0040313612B
:10576800704730BFF7E700BF0004005800ED00E0C5
:1057780030B589B004468C462A4B93E8030006905E
:10578800ADF81C1003F1080292E803000490ADF88C
:10579800141001AD103393E8070085E80700BCF545
:1057A800007F07D0002314E008AA02EB830353F814
:1057B8001C5C1EE00023022B08D808AA02EB430257
:1057C80032F8082CA242EFD20133F4E7002510E0AA
:1057D8000133022B0CD808AA02EB430232F8102C32
:1057E800A242F5D308AA02EB830353F81C5C00E03D
:1057F80000250D4A136823F007032B431360FBF7BA
:105808000DFF0446084B1B6803F00703AB4206D0A4
:10581800FBF704FF001B0228F4D9032000E0002056
:1058280009B030BD603A01080040005810B5C0F317
:1058380003100C4B53F820404FF0B043D3F8083115
:1058480003F00F03084A52F82330B4FBF3F4FFF7D0
:105858003BFF0146054BA3FB0434A00CFFF788FF70
:1058680010BD00BFD05801083059010883DE1B4322
:105878004FF0B0439968DB6803F0030311F00C01A3
:105888000AD00C2906D0042947D008293BD0002289
:10589800104626E0012BF6D14FF0B0431B6813F0F9
:1058A80008030DD04FF0B0431B6813F0080324D150
:1058B8004FF0B042D2F894202E4A52F823200EE03E
:1058C8004FF0B042126812F0080F12D14FF0B043F7
:1058D800D3F89430C3F30323264A52F82320D1B1D6
:1058E80000204FF0B0439B6803F00C030C2B1AD038
:1058F80070474FF0B0421268EEE74FF0B0431B68B4
:10590800C3F30313D8E74FF0B0431A6812F48012B8
:1059180006D11948E5E71046E3E700221748E0E713
:1059280000221648DDE74FF0B043DB6803F00303BD
:10593800022B09D0032B08D14FF0B0431B6813F496
:10594800801F15D10C4A00E00C4A4FF0B041CB68DB
:10595800C3F3062303FB02F2CB68C3F3021301333C
:10596800B2FBF3F2C868400F0130B2FBF0F0BFE7BA
:10597800024AEAE7D05801080048E8010024F40088
:1059880008B5FFF775FF4FF0B0439B68C3F30313E7
:10599800024A52F82330B0FBF3F008BD3059010831
:1059A800002800F01183F8B504464FF0B0439D6815
:1059B80005F00C05DE6806F00306036813F0200FF7
:1059C8002AD0002D65D00C2D61D0236A002B00F061
:1059D800BF804FF0B042136843F001031360FBF738
:1059E8001DFE07464FF0B0431B6813F0020F00F08E
:1059F800A7804FF0B0431A6842F008021A601A688C
:105A080022F0F002A16A0A431A60616A5A6822F415
:105A18007F4242EA01225A60236813F0010F00F026
:105A2800B580082D00F0AE800C2D00F0A8804FF056
:105A3800B042136823F48013A1680B4313606368B2
:105A4800B3F5803F00F0C480B3F5041F00F0C580B3
:105A58004FF0B0431A6822F480321A601A6822F4B0
:105A680000121A606368002B00F0C280FBF7D6FDB5
:105A780007464FF0B0431B6813F4003F40F08680A0
:105A8800FBF7CCFDC01B6428F3D90320A9E2012E43
:105A98009BD1236A002B00F09982A06A4FF0B04393
:105AA8001B6813F0080F29D04FF0B0431B6803F0B0
:105AB800F00398422AD9FFF7B9FE002840F08882FF
:105AC8004FF0B0431A6842F008021A601A6822F0D0
